:020000040800F2
:1000000000A0002055150008211500082315000840
:100010002515000827150008291500080000000014
:100020000000000000000000000000002B15000888
:100030002D150008000000002F15000831150008DC
:10004000A5150008A5150008A5150008A5150008A8
:10005000A5150008A5150008A5150008A515000898
:10006000A5150008A5150008A5150008A515000888
:10007000A5150008A5150008A5150008A515000878
:10008000A5150008A5150008A5150008A515000868
:10009000A5150008A5150008A5150008A515000858
:1000A000A5150008A5150008A5150008A515000848
:1000B000A5150008A5150008A5150008A515000838
:1000C000A5150008A5150008A5150008A515000828
:1000D000A5150008A5150008A5150008A515000818
:1000E000A5150008A5150008A5150008A515000808
:1000F000A5150008A5150008A5150008A5150008F8
:10010000000000000000000000000000A51500082D
:10011000A5150008A5150008A5150008A5150008D7
:10012000A5150008A5150008A5150008A5150008C7
:10013000A5150008A515000800000000000000003B
:10014000A5150008A5150008A51500080000000069
:10015000000000000000000000000000000000009F
:100160000000000000000000A5150008A51500080B
:10017000A5150008000000000000000000000000BD
:0801800000000000A5150008B5
:1001880010B5054C237833B9044B13B10448AFF3C9
:1001980000800123237010BD3800002000000000FB
:1001A800F015000808B5034B1BB103490348AFF32A
:1001B800008008BD000000003C000020F015000889
:1001C80010B504460E4B18784FF47A73B3FBF0F36E
:1001D8000C4A1068B0FBF3F000F080F868B90F2CF7
:1001E80001D901200AE0002221464FF0FF3000F03B
:1001F80041F8034B5C60002000E0012010BD00BF07
:10020800000000203400002008B5074A136843F0B6
:1002180010031360032000F01BF80020FFF7D0FF45
:1002280001F05CF9002008BD00200240034A116873
:10023800034B1B780B441360704700BFE400002099
:1002480000000020014B1868704700BFE400002040
:10025800074AD36823F4E0631B041B0C000200F474
:10026800E060034343F0BF6343F40033D360704757
:1002780000ED00E030B4174BDB68C3F30223C3F191
:100288000704042C28BF04241D1D062D18D9033B80
:100298004FF0FF3505FA04F421EA0401994005FA04
:1002A80003F322EA0303194300280BDB0901C9B24F
:1002B80000F1604000F5614080F8001330BC7047E1
:1002C8000023E5E700F00F000901C9B2024B1954F9
:1002D800F4E700BF00ED00E014ED00E00138B0F1F4
:1002E800807F0AD2064B5860064AF02182F8231014
:1002F8000020986007221A6070470120704700BFED
:1003080010E000E000ED00E0F0B482B000235BE014
:1003180086685F000325BD4026EA0506CD68BD4016
:1003280035438560466826EA04064D68C5F300141F
:100338009C403443446055E0DD08083550F825708A
:1003480003F00704A6000F24B44027EA04070C6949
:10035800B4403C4340F8254058E0042400E0002421
:10036800B4403C4302354C4E46F825404B4C25687A
:10037800D44325EA02064F6817F4803F01D042EAC9
:100388000506464D2E606D6804EA05064F6817F4A9
:10039800003F01D042EA0506404D6E60AD6804EAB0
:1003A80005064F6817F4801F01D042EA05063B4D49
:1003B800AE60ED682C404E6816F4001F01D042EA8A
:1003C8000504364AD46001330A6832FA03F45FD070
:1003D80001249C402240F6D04D6805F00305013DFC
:1003E800012D95D94C6804F00304032C09D0C56885
:1003F8005E000324B44025EA04058C68B4402C430D
:10040800C4604C6804F00304022C95D005685E00B3
:100418000324B44025EA04054C6804F00304B440FE
:100428002C4304604C6814F4403FCCD01C4CA569A4
:1004380045F00105A561A46904F001040194019C3B
:100448009D08AE1C144C54F8267003F00304A60053
:100458000F24B44027EA0407B0F1904F3FF47FAF70
:10046800104CA0420ED004F58064A0420CD004F5D4
:100478008064A0420AD004F58064A0423FF46DAFC6
:1004880005246DE701246BE7022469E7032467E785
:1004980002B0F0BC704700BF0000014000040140FA
:1004A80000100240000400480AB18161704781626F
:1004B80070470000002800F0018370B582B0044640
:1004C800036813F0010F3BD0B54B5B6803F00C03D6
:1004D800042B1ED0B24B5B6803F00C03082B13D01F
:1004E8006368B3F5803F68D0002B40F0928003F139
:1004F800804303F504331A6822F480321A601A68BC
:1005080022F480221A605DE0A54B5B6813F4803FFB
:10051800E6D04FF4003393FAA3F3A14B19684FF4D4
:10052800003393FAA3F3B3FA83F303F01F03012212
:1005380002FA03F30B4203D06368002B00F0C08279
:10054800236813F0020F00F0C580954B5B6813F029
:100558000C0F00F09C80924B5B6803F00C03082B97
:1005680000F08F802369002B00F0F280012292FABC
:10057800A2F3B3FA83F303F1845303F584139B00C6
:100588001A60FFF75FFE0546022393FAA3F3844B34
:100598001968022393FAA3F3B3FA83F303F01F0352
:1005A800012202FA03F30B4240F0C380FFF74AFE30
:1005B800401B0228E8D903208BE2794A136843F4E8
:1005C80080331360764AD36A23F00F03A1680B4384
:1005D800D3626368002B36D0FFF734FE05464FF42C
:1005E800003393FAA3F36E4B19684FF4003393FA70
:1005F800A3F3B3FA83F303F01F03012202FA03F310
:100608000B429DD1FFF71EFE401B6428E7D903204B
:100618005FE2B3F5A02F09D0614B1A6822F480324B
:100628001A601A6822F480221A60CBE703F180432B
:10063800A3F53C331A6842F480221A601A6842F41F
:1006480080321A60BEE7FFF7FDFD05464FF4003320
:1006580093FAA3F3524B19684FF4003393FAA3F3B8
:10066800B3FA83F303F01F03012202FA03F30B42E8
:100678003FF466AFFFF7E6FD401B6428E6D9032088
:1006880027E2474B5B6813F4803F7FF46BAF02238C
:1006980093FAA3F3424B1968022393FAA3F3B3FA2C
:1006A80083F303F01F03012202FA03F30B4203D082
:1006B8002369934240F006823948036823F0F8031F
:1006C8006169F82292FAA2F2B2FA82F201FA02F20F
:1006D80013430360236813F0080F00F08D80A369AB
:1006E800002B61D0012191FAA1F2B2FA82F22D4BCE
:1006F80013449B001960FFF7A5FD0546022393FAF2
:10070800A3F293FAA3F293FAA3F2254A516A93FA51
:10071800A3F3B3FA83F303F01F03012202FA03F3EE
:100728000B4269D1FFF78EFD401B0228E6D9032052
:10073800CFE11B48036823F0F8036169F82292FAB5
:10074800A2F2B2FA82F201FA02F213430360C1E79D
:10075800012393FAA3F3B3FA83F303F1845303F564
:1007680084139B0000221A60FFF76CFD05460223E4
:1007780093FAA3F30A4B1968022393FAA3F3B3FA83
:1007880083F303F01F03012202FA03F30B42A1D003
:10079800FFF758FD401B0228E9D9032099E100BF63
:1007A8000010024020819010012292FAA2F2B2FABF
:1007B80082F2B74B13449B0000221A60FFF742FDF8
:1007C8000546022393FAA3F293FAA3F293FAA3F24B
:1007D800B04A516A93FAA3F3B3FA83F303F01F0301
:1007E800012202FA03F30B4206D0FFF72BFD401B50
:1007F8000228E6D903206CE1236813F0040F00F007
:10080800A980A44BDB6913F0805F0BD1A14BDA6997
:1008180042F08052DA61DB6903F080530193019B57
:10082800012500E000259C4B1B6813F4807F10D045
:10083800E368012B21D063BB03F1804303F5043344
:100848001A6A22F001021A621A6A22F004021A6273
:1008580018E0914A136843F480731360FFF7F2FCC1
:1008680006468D4B1B6813F4807FE1D1FFF7EAFC45
:10087800801B6428F5D903202BE1864A136A43F0CC
:1008880001031362E368002B3CD0FFF7DBFC06464C
:100898002EE0052B09D07F4B1A6A22F001021A625A
:1008A8001A6A22F004021A62ECE77A4B1A6A42F0DA
:1008B80004021A621A6A42F001021A62E2E702238B
:1008C80093FAA3F3734B596A022393FAA3F3B3FA87
:1008D80083F303F01F03012202FA03F3194238D10C
:1008E800FFF7B0FC801B41F28833984200F2EC809D
:1008F800022393FAA3F293FAA3F3002BDFD0654BFC
:10090800196AE1E7FFF79EFC064618E0022393FA0E
:10091800A3F3604B596A022393FAA3F3B3FA83F360
:1009280003F01F03012202FA03F3194211D0FFF763
:1009380089FC801B41F28833984200F2C780022369
:1009480093FAA3F293FAA3F3002BDFD0514B196A61
:10095800E1E7B5BBE369002B00F0BA804D4A526865
:1009680002F00C02082A00F09980022B2FD04FF0D9
:10097800807393FAA3F3B3FA83F303F1845303F573
:1009880084139B0000221A60FFF75CFC04464FF0BA
:10099800007393FAA3F33F4B19684FF0007393FA6F
:1009A800A3F3B3FA83F303F01F03012202FA03F35C
:1009B80019426BD0FFF746FC001B0228E7D9032039
:1009C80087E0344AD36923F08053D361C2E74FF0FC
:1009D800807393FAA3F3B3FA83F303F1845303F513
:1009E80084139B0000221A60FFF72CFC05464FF089
:1009F800007393FAA3F3274B19684FF0007393FA27
:100A0800A3F3B3FA83F303F01F03012202FA03F3FB
:100A1800194206D0FFF716FC401B0228E7D903202D
:100A280057E01C494B6823F47413626A206A024336
:100A380013434B604FF0807393FAA3F3B3FA83F335
:100A480003F1845303F584139B0001221A60FFF716
:100A5800F9FB04464FF0007393FAA3F30D4B1968A2
:100A68004FF0007393FAA3F3B3FA83F303F01F0371
:100A7800012202FA03F3194206D1FFF7E3FB001B38
:100A88000228E7D9032024E0002022E0002020E00B
:100A9800208190100010024000700040012B1AD0F5
:100AA800104B5B6803F48031226A914215D103F43C
:100AB8007013626A934212D100200AE00120704745
:100AC800012006E0012004E0032002E0032000E00A
:100AD800002002B070BD0120FBE70120F9E70120EA
:100AE800F7E700BF00100240174B5B6803F00C02E9
:100AF800082A01D01548704710B403F470114FF458
:100B0800701292FAA2F2B2FA82F221FA02F2104CB0
:100B1800A05C0D4AD26A02F00F020F2191FAA1F1EE
:100B2800B1FA81F1CA402244127C13F4803F07D005
:100B3800064BB3FBF2F300FB03F05DF8044B704780
:100B4800044B03FB00F0F8E70010024000127A00A3
:100B58000816000800093D00002800F0BE8070B5A6
:100B68000D460446614B1B6803F007038B420BD20A
:100B78005E4A136823F007030B431360136803F0FE
:100B880007038B4240F0AB80236813F0020F06D0B6
:100B9800574A536823F0F003A1680B435360236856
:100BA80013F0010F5AD06368012B2DD0022B40D0CF
:100BB800022292FAA2F24E4A1068022292FAA2F295
:100BC800B2FA82F202F01F02012101FA02F2104287
:100BD80000F0878046494A6822F0030213434B60BD
:100BE800FFF730FB0646424B5B6803F00C03626874
:100BF800B3EB820F32D0FFF725FB801B41F288331D
:100C08009842F0D9032067E04FF4003292FAA2F23A
:100C1800374A10684FF4003292FAA2F2B2FA82F21E
:100C280002F01F02012101FA02F20242D2D1012090
:100C380052E04FF0007292FAA2F22D4A10684FF07B
:100C4800007292FAA2F2B2FA82F202F01F020121B5
:100C580001FA02F21042BDD101203DE0234B1B688E
:100C680003F00703AB420AD9204A136823F00703AD
:100C78002B431360136803F00703AB4233D1236897
:100C880013F0040F06D01A4A536823F4E063E168AE
:100C98000B435360236813F0080F07D0144A5368B6
:100CA80023F46053216943EAC1035360FFF71CFF33
:100CB8000F4B5B6803F0F003F02292FAA2F2B2FA4B
:100CC80082F2D3400B4AD35CD8400B4B18600B4BD5
:100CD8001868FFF775FA002070BD012070470120E1
:100CE800FAE70120F8E70120F6E700BF00200240FC
:100CF80000100240341600083400002004000020D0
:100D080000286FD010B50446436A33B94368B3F579
:100D1800827F05D00023C36102E0002303614361A1
:100D28000023A36294F85D30002B52D0022384F88C
:100D38005D302268136823F040031360E368B3F55D
:100D4800E06F4CD90022B3F5706F04D0B3F5E06FB3
:100D580001D00023A362636803F48273A16801F4DD
:100D680004410B43216901F002010B43616901F061
:100D780001010B43A16901F400710B43E16901F022
:100D880038010B43216A01F080010B43A16A01F489
:100D9800005120680B430360638B03F00403616A0E
:100DA80001F010010B43616B01F008010B43E1688E
:100DB80001F470610B43216813434B602268D369C7
:100DC80023F40063D36100202066012384F85D309A
:100DD80010BD84F85C30204600F034FBA6E74FF4E1
:100DE8008052B0E701207047F0B58BB0002405941D
:100DF80006940794089409943C4B5A6942F40022DB
:100E08005A615A6902F400220092009A5A6942F41F
:100E180080025A615A6902F480020192019A5A6961
:100E280042F400325A615A6902F400320292029A7C
:100E38005A6942F400125A615A6902F40012039284
:100E4800039A5A6942F480225A615B6903F4802349
:100E58000493049B264D22464FF47F412846FFF712
:100E680023FB012705970694079405A94FF09040A6
:100E7800FFF74AFAE023059302260696079408949A
:100E88000523099305A94FF09040FFF73DFA4FF469
:100E98007F43059306970794089405A92846FFF70A
:100EA80033FA4FF4C0530593069607940326089621
:100EB8000E23099305A94FF09040FFF725FAC023A8
:100EC800059312230693079408940423099305A90C
:100ED8000848FFF719FA05964FF4901306930794FC
:100EE80005A92846FFF710FA0BB0F0BD0010024024
:100EF80000100048000400482DE9F041804610F039
:100F0800010200D0012200252C4657E12E462FE091
:100F1800C04F002047F82400052B1FD00136F6B239
:100F28001F2E75D8BC4BA3FB06039B0803EB43039A
:100F3800A6EB4303DBB2570007EB020CB74F07EBF6
:100F48004C0717F803C0012707FA0CF73942DFD01E
:100F58000127B740AF4840F82470DDE70131DDE7ED
:100F6800AC4F002047F82400052B22D00136F6B2FA
:100F78001D2E4DD8A84BA3FB06039B0803EB430388
:100F8800A6EB4303DBB2570007EB020CA34F07EBBA
:100F98004C0717F803C0012707FA0CF73942DFD0CE
:100FA80006F1020C012707FA0CF79A4840F824705A
:100FB800DAE70131DAE7671C96484FF0000E40F88F
:100FC80027E0052B22D00136F6B21D2E22D8924BEF
:100FD800A3FB06039B0803EB4303A6EB4303DBB227
:100FE800570007EB020C8D4F07EB4C0717F803C0AF
:100FF800012707FA0CF73942DDD0671C4FF0010CC6
:101008000CFA06FC834840F827C0DAE70131DAE732
:101018000026DAE71E2606E0631C7E4F002047F80C
:1010280023000136F6B21F2E1AD87B4BA3FB06030A
:101038009B0803EB4303A6EB4303DBB2570007EB24
:10104800020C764F07EB4C07FF5C0123BB401942AB
:10105800E2D0631C0127B7406E4840F82370E0E7F0
:10106800002606E0A31C6B4F002047F8230001363A
:10107800F6B2032E1AD8684BA3FB06039B0803EBB2
:101088004303A6EB4303DBB2570007EB020C634FA5
:1010980007EB4C07FF5C0123BB401942E2D0A31CBD
:1010A8000127B7405B4840F82370E0E7013100268C
:1010B80009E0A71C57484FF0000E40F827E0052B21
:1010C80024D00136F6B2162E22D8534BA3FB0603C2
:1010D8009B0803EB4303A6EB4303DBB2570007EB84
:1010E800020C4E4F07EB4C0717F803C0012707FA0D
:1010F8000CF73942DDD006F1040EA71C4FF0010CA5
:101108000CFA0EFC434840F827C0D8E70131D8E76D
:101118001B2607E0A31C3F4F4FF0000C47F823C0E5
:101128000136F6B21E2E1CD8F71E3D4B83FB070373
:10113800A3EBE77303EB4303A7EB4303570007EB6A
:10114800020C364F07EB4C07FF5C0123BB401942EA
:10115800E0D0A31C0127B740DFF8B8C04CF82370D3
:10116800DEE7002607E0A31C2A4F4FF0000C47F8E3
:1011780023C00136F6B2012E1CD8371D284B83FB3D
:101188000703A3EBE77303EB4303A7EB4303570002
:1011980007EB020C214F07EB4C07FF5C0123BB4018
:1011A8001942E0D0A31C0127B740DFF868C04CF80B
:1011B8002370DEE701310135EDB20324012D04D897
:1011C800002D3FF4A3AE0026AAE6002404E0114B4C
:1011D80000259D610134E4B2012C18D8251D104B5F
:1011E80083FB0503A3EBE57303EB4303A5EB430381
:1011F8005500AE18094D05EB4605ED5C0123AB40E3
:101208001942E4D00123A340024DAB61E2E701316A
:1012180000240EE054000020ABAAAAAA2816000851
:10122800ABAAAA2A494D0026AE61052B1CD0013471
:10123800E4B21D2C1AD8464BA3FB04039B0803EB0E
:101248004303A4EB4303DBB25500AE18414D05EB55
:101258004605EE5C0125B5402942E3D0A61C0125D0
:10126800B5403A4EB561E0E70131E0E7002406E019
:10127800364D0026EE61052B1BD00134E4B2072C55
:1012880019D8334BA3FB04039B0803EB4303A4EBDC
:101298004303DBB25500AE182E4D05EB4605EE5C58
:1012A8000125B5402942E3D00125A540274EF56127
:1012B800E1E70131E1E7002404E0244B0025DD618A
:1012C8000134E4B2032C19D8214BA3FB04039B0877
:1012D80003EB4303A4EB4303DBB25500AE181D4DEB
:1012E80005EB4605ED5C0123AB401942E5D004F15E
:1012F80008050123AB40154DEB61E1E7B8F1340F68
:1013080009D0B8F1130F0FD808F10C00012383405E
:101318000E4AD36106E00D4B4FF48052DA614FF06C
:1013280000421A62BDE8F081B8F1140F07D0A8F1A5
:101338001400012303FA00F0044B1862F2E7034B90
:101348004FF00042DA6101221A62EBE754000020F4
:10135800ABAAAAAA2816000810B5074C01224FF418
:1013680080712046FFF7A0F801224FF40071204653
:10137800FFF79AF8FEE700BF0010004870B590B07C
:1013880000240794089409940C94019402940394FB
:10139800049405940225069501260A9610230B93BA
:1013A8000D950E944FF420130F9306A8FFF782F8BB
:1013B8000F230193029503944FF4806304930594DB
:1013C800314601A8FFF7C8FB10B070BD08B5FEF79D
:1013D8001BFFFFF7D3FFFFF707FD00F00BF80349EA
:1013E8000120FFF789FDFFF7B7FF00BF08000020C5
:1013F8007047000008B51148114B03604FF4827321
:101408004360002383604FF47062C260022202616D
:10141800012242614FF4007282611022C2610362AC
:10142800436283620722C26203634363FFF768FC77
:1014380000B908BDFFF7DCFFFBE700BFE8000020AC
:1014480000380040F0B589B0002303930493059356
:101458000693079302681E4B9A4201D009B0F0BD6B
:1014680003F5EC33DA6942F48042DA61DA6902F4AE
:1014780080420092009A5A6942F480025A615A697D
:1014880002F480020192019A5A6942F480225A6158
:101498005B6903F480230293029B4FF40073039368
:1014A8000227049700260596032506950524079428
:1014B80003A90848FEF728FF4FF400430393049755
:1014C80005960695079403A90348FEF71DFFC5E78F
:1014D80000380040001400480004004800B583B0FC
:1014E8000C4B9A6942F001029A619A6902F0010272
:1014F8000092009ADA6942F08052DA61DB6903F0FF
:1015080080530193019B0720FEF7A2FE03B05DF80C
:1015180004FB00BF001002407047FEE7FEE7FEE74D
:10152800FEE770477047704708B5FEF77FFE08BDB5
:10153800054BD3F8882042F47002C3F888204FF096
:1015480000629A60704700BF00ED00E0DFF834D019
:101558000D480E490E4A002302E0D458C450043303
:10156800C4188C42F9D30B4A0B4C002301E01360DA
:101578000432A242FBD3FFF7DBFF00F011F8FFF7BC
:1015880025FFFEE700A00020000000203800002012
:1015980054160008380000204C010020FEE7000027
:1015A80070B50D4D0D4C641BA4100026A64209D140
:1015B8000B4D0C4C00F018F8641BA4100026A64232
:1015C80005D170BD55F8043B98470136EEE755F84C
:1015D800043B98470136F2E74C1600084C16000801
:1015E8004C16000850160008F8B500BFF8BC08BC37
:1015F8009E467047F8B500BFF8BC08BC9E467047C9
:1016080002030405060708090A0B0C0D0E0F10103B
:101618000102030405060708090A0B0C0D0E0F103A
:101628000002000300040700060005000000000097
:10163800000000000102030406070809000000007A
:041648000102030494
:04164C00AD010008E4
:041650008901000804
:10165400010000001000000078D878D878D878D835
:1016640078D878D878D878D878D878D878D878D8F6
:1016740078D878D878D878D878D878D878D87800BE
:081684005400002000127A005E
:040000050800155585
:00000001FF
