:020000040800F2
:1000000000A00020D51F0008FD1E0008FF1E0008EC
:10001000011F0008031F0008051F00080000000062
:10002000000000000000000000000000071F0008A2
:10003000091F0008000000000B1F00080D1F00082A
:10004000252000082520000825200008252000087C
:10005000252000082520000825200008252000086C
:10006000252000082520000825200008252000085C
:10007000252000082520000825200008252000084C
:10008000252000082520000825200008252000083C
:10009000252000082520000825200008252000082C
:1000A000252000082520000825200008252000081C
:1000B000252000082520000825200008252000080C
:1000C00025200008252000082520000825200008FC
:1000D00025200008252000082520000825200008EC
:1000E00025200008252000082520000825200008DC
:1000F00025200008252000082520000825200008CC
:1001000000000000000000000000000025200008A2
:1001100025200008252000082520000825200008AB
:10012000252000082520000825200008252000089B
:100130002520000825200008000000000000000025
:1001400025200008252000082520000800000000C8
:10015000000000000000000000000000000000009F
:1001600000000000000000002520000825200008F5
:100170002520000800000000000000000000000032
:0801800000000000252000082A
:1001880010B5054C237833B9044B13B10448AFF3C9
:1001980000800123237010BD3400002000000000FF
:1001A8008020000808B5034B1BB103490348AFF38F
:1001B800008008BD000000003800002080200008F2
:1001C80010B504460E4B18784FF47A73B3FBF0F36E
:1001D8000C4A1068B0FBF3F000F080F868B90F2CF7
:1001E80001D901200AE0002221464FF0FF3000F03B
:1001F80041F8034B5C60002000E0012010BD00BF07
:10020800000000203000002008B5074A136843F0BA
:1002180010031360032000F01BF80020FFF7D0FF45
:1002280001F04AFE002008BD00200240034A116880
:10023800034B1B780B441360704700BF98000020E5
:1002480000000020014B1868704700BF980000208C
:10025800074AD36823F4E0631B041B0C000200F474
:10026800E060034343F0BF6343F40033D360704757
:1002780000ED00E030B4174BDB68C3F30223C3F191
:100288000704042C28BF04241D1D062D18D9033B80
:100298004FF0FF3505FA04F421EA0401994005FA04
:1002A80003F322EA0303194300280BDB0901C9B24F
:1002B80000F1604000F5614080F8001330BC7047E1
:1002C8000023E5E700F00F000901C9B2024B1954F9
:1002D800F4E700BF00ED00E014ED00E00138B0F1F4
:1002E800807F0AD2064B5860064AF02182F8231014
:1002F8000020986007221A6070470120704700BFED
:1003080010E000E000ED00E0F0B482B000235BE014
:1003180086685F000325BD4026EA0506CD68BD4016
:1003280035438560466826EA04064D68C5F300141F
:100338009C403443446055E0DD08083550F825708A
:1003480003F00704A6000F24B44027EA04070C6949
:10035800B4403C4340F8254058E0042400E0002421
:10036800B4403C4302354C4E46F825404B4C25687A
:10037800D44325EA02064F6817F4803F01D042EAC9
:100388000506464D2E606D6804EA05064F6817F4A9
:10039800003F01D042EA0506404D6E60AD6804EAB0
:1003A80005064F6817F4801F01D042EA05063B4D49
:1003B800AE60ED682C404E6816F4001F01D042EA8A
:1003C8000504364AD46001330A6832FA03F45FD070
:1003D80001249C402240F6D04D6805F00305013DFC
:1003E800012D95D94C6804F00304032C09D0C56885
:1003F8005E000324B44025EA04058C68B4402C430D
:10040800C4604C6804F00304022C95D005685E00B3
:100418000324B44025EA04054C6804F00304B440FE
:100428002C4304604C6814F4403FCCD01C4CA569A4
:1004380045F00105A561A46904F001040194019C3B
:100448009D08AE1C144C54F8267003F00304A60053
:100458000F24B44027EA0407B0F1904F3FF47FAF70
:10046800104CA0420ED004F58064A0420CD004F5D4
:100478008064A0420AD004F58064A0423FF46DAFC6
:1004880005246DE701246BE7022469E7032467E785
:1004980002B0F0BC704700BF0000014000040140FA
:1004A80000100240000400480AB18161704781626F
:1004B80070470000002800F0018370B582B0044640
:1004C800036813F0010F3BD0B54B5B6803F00C03D6
:1004D800042B1ED0B24B5B6803F00C03082B13D01F
:1004E8006368B3F5803F68D0002B40F0928003F139
:1004F800804303F504331A6822F480321A601A68BC
:1005080022F480221A605DE0A54B5B6813F4803FFB
:10051800E6D04FF4003393FAA3F3A14B19684FF4D4
:10052800003393FAA3F3B3FA83F303F01F03012212
:1005380002FA03F30B4203D06368002B00F0C08279
:10054800236813F0020F00F0C580954B5B6813F029
:100558000C0F00F09C80924B5B6803F00C03082B97
:1005680000F08F802369002B00F0F280012292FABC
:10057800A2F3B3FA83F303F1845303F584139B00C6
:100588001A60FFF75FFE0546022393FAA3F3844B34
:100598001968022393FAA3F3B3FA83F303F01F0352
:1005A800012202FA03F30B4240F0C380FFF74AFE30
:1005B800401B0228E8D903208BE2794A136843F4E8
:1005C80080331360764AD36A23F00F03A1680B4384
:1005D800D3626368002B36D0FFF734FE05464FF42C
:1005E800003393FAA3F36E4B19684FF4003393FA70
:1005F800A3F3B3FA83F303F01F03012202FA03F310
:100608000B429DD1FFF71EFE401B6428E7D903204B
:100618005FE2B3F5A02F09D0614B1A6822F480324B
:100628001A601A6822F480221A60CBE703F180432B
:10063800A3F53C331A6842F480221A601A6842F41F
:1006480080321A60BEE7FFF7FDFD05464FF4003320
:1006580093FAA3F3524B19684FF4003393FAA3F3B8
:10066800B3FA83F303F01F03012202FA03F30B42E8
:100678003FF466AFFFF7E6FD401B6428E6D9032088
:1006880027E2474B5B6813F4803F7FF46BAF02238C
:1006980093FAA3F3424B1968022393FAA3F3B3FA2C
:1006A80083F303F01F03012202FA03F30B4203D082
:1006B8002369934240F006823948036823F0F8031F
:1006C8006169F82292FAA2F2B2FA82F201FA02F20F
:1006D80013430360236813F0080F00F08D80A369AB
:1006E800002B61D0012191FAA1F2B2FA82F22D4BCE
:1006F80013449B001960FFF7A5FD0546022393FAF2
:10070800A3F293FAA3F293FAA3F2254A516A93FA51
:10071800A3F3B3FA83F303F01F03012202FA03F3EE
:100728000B4269D1FFF78EFD401B0228E6D9032052
:10073800CFE11B48036823F0F8036169F82292FAB5
:10074800A2F2B2FA82F201FA02F213430360C1E79D
:10075800012393FAA3F3B3FA83F303F1845303F564
:1007680084139B0000221A60FFF76CFD05460223E4
:1007780093FAA3F30A4B1968022393FAA3F3B3FA83
:1007880083F303F01F03012202FA03F30B42A1D003
:10079800FFF758FD401B0228E9D9032099E100BF63
:1007A8000010024020819010012292FAA2F2B2FABF
:1007B80082F2B74B13449B0000221A60FFF742FDF8
:1007C8000546022393FAA3F293FAA3F293FAA3F24B
:1007D800B04A516A93FAA3F3B3FA83F303F01F0301
:1007E800012202FA03F30B4206D0FFF72BFD401B50
:1007F8000228E6D903206CE1236813F0040F00F007
:10080800A980A44BDB6913F0805F0BD1A14BDA6997
:1008180042F08052DA61DB6903F080530193019B57
:10082800012500E000259C4B1B6813F4807F10D045
:10083800E368012B21D063BB03F1804303F5043344
:100848001A6A22F001021A621A6A22F004021A6273
:1008580018E0914A136843F480731360FFF7F2FCC1
:1008680006468D4B1B6813F4807FE1D1FFF7EAFC45
:10087800801B6428F5D903202BE1864A136A43F0CC
:1008880001031362E368002B3CD0FFF7DBFC06464C
:100898002EE0052B09D07F4B1A6A22F001021A625A
:1008A8001A6A22F004021A62ECE77A4B1A6A42F0DA
:1008B80004021A621A6A42F001021A62E2E702238B
:1008C80093FAA3F3734B596A022393FAA3F3B3FA87
:1008D80083F303F01F03012202FA03F3194238D10C
:1008E800FFF7B0FC801B41F28833984200F2EC809D
:1008F800022393FAA3F293FAA3F3002BDFD0654BFC
:10090800196AE1E7FFF79EFC064618E0022393FA0E
:10091800A3F3604B596A022393FAA3F3B3FA83F360
:1009280003F01F03012202FA03F3194211D0FFF763
:1009380089FC801B41F28833984200F2C780022369
:1009480093FAA3F293FAA3F3002BDFD0514B196A61
:10095800E1E7B5BBE369002B00F0BA804D4A526865
:1009680002F00C02082A00F09980022B2FD04FF0D9
:10097800807393FAA3F3B3FA83F303F1845303F573
:1009880084139B0000221A60FFF75CFC04464FF0BA
:10099800007393FAA3F33F4B19684FF0007393FA6F
:1009A800A3F3B3FA83F303F01F03012202FA03F35C
:1009B80019426BD0FFF746FC001B0228E7D9032039
:1009C80087E0344AD36923F08053D361C2E74FF0FC
:1009D800807393FAA3F3B3FA83F303F1845303F513
:1009E80084139B0000221A60FFF72CFC05464FF089
:1009F800007393FAA3F3274B19684FF0007393FA27
:100A0800A3F3B3FA83F303F01F03012202FA03F3FB
:100A1800194206D0FFF716FC401B0228E7D903202D
:100A280057E01C494B6823F47413626A206A024336
:100A380013434B604FF0807393FAA3F3B3FA83F335
:100A480003F1845303F584139B0001221A60FFF716
:100A5800F9FB04464FF0007393FAA3F30D4B1968A2
:100A68004FF0007393FAA3F3B3FA83F303F01F0371
:100A7800012202FA03F3194206D1FFF7E3FB001B38
:100A88000228E7D9032024E0002022E0002020E00B
:100A9800208190100010024000700040012B1AD0F5
:100AA800104B5B6803F48031226A914215D103F43C
:100AB8007013626A934212D100200AE00120704745
:100AC800012006E0012004E0032002E0032000E00A
:100AD800002002B070BD0120FBE70120F9E70120EA
:100AE800F7E700BF00100240174B5B6803F00C02E9
:100AF800082A01D01548704710B403F470114FF458
:100B0800701292FAA2F2B2FA82F221FA02F2104CB0
:100B1800A05C0D4AD26A02F00F020F2191FAA1F1EE
:100B2800B1FA81F1CA402244127C13F4803F07D005
:100B3800064BB3FBF2F300FB03F05DF8044B704780
:100B4800044B03FB00F0F8E70010024000127A00A3
:100B58009820000800093D00002800F0BE8070B50C
:100B68000D460446614B1B6803F007038B420BD20A
:100B78005E4A136823F007030B431360136803F0FE
:100B880007038B4240F0AB80236813F0020F06D0B6
:100B9800574A536823F0F003A1680B435360236856
:100BA80013F0010F5AD06368012B2DD0022B40D0CF
:100BB800022292FAA2F24E4A1068022292FAA2F295
:100BC800B2FA82F202F01F02012101FA02F2104287
:100BD80000F0878046494A6822F0030213434B60BD
:100BE800FFF730FB0646424B5B6803F00C03626874
:100BF800B3EB820F32D0FFF725FB801B41F288331D
:100C08009842F0D9032067E04FF4003292FAA2F23A
:100C1800374A10684FF4003292FAA2F2B2FA82F21E
:100C280002F01F02012101FA02F20242D2D1012090
:100C380052E04FF0007292FAA2F22D4A10684FF07B
:100C4800007292FAA2F2B2FA82F202F01F020121B5
:100C580001FA02F21042BDD101203DE0234B1B688E
:100C680003F00703AB420AD9204A136823F00703AD
:100C78002B431360136803F00703AB4233D1236897
:100C880013F0040F06D01A4A536823F4E063E168AE
:100C98000B435360236813F0080F07D0144A5368B6
:100CA80023F46053216943EAC1035360FFF71CFF33
:100CB8000F4B5B6803F0F003F02292FAA2F2B2FA4B
:100CC80082F2D3400B4AD35CD8400B4B18600B4BD5
:100CD8001868FFF775FA002070BD012070470120E1
:100CE800FAE70120F8E70120F6E700BF00200240FC
:100CF80000100240DC200008300000200400002022
:100D0800014B1868704700BF3000002008B5FFF796
:100D1800F7FF074B5B6803F4E0634FF4E06292FA75
:100D2800A2F2B2FA82F2D340024AD35CD84008BD9C
:100D380000100240EC20000808B5FFF7E1FF074B60
:100D48005B6803F460534FF4605292FAA2F2B2FA6D
:100D580082F2D340024AD35CD84008BD001002405A
:100D6800EC200008F0B583B00446036813F4803F14
:100D780048D0914BDB6913F0805F40F0D4808E4BF4
:100D8800DA6942F08052DA61DB6903F0805301933B
:100D9800019B0125894B1B6813F4807F00F0C580F7
:100DA800854B1B6A13F4407322D0626802F44072C8
:100DB8009A421DD08048016A21F440764FF480336E
:100DC80093FAA3F2B2FA82F27D4F3A4492004FF0BE
:100DD800010CC2F800C093FAA3F3B3FA83F33B44BF
:100DE8009B0000221A60066211F0010F40F0B280E9
:100DF800714A136A23F4407361680B431362002D30
:100E080040F0CF80236813F0010F06D06A4A136BB5
:100E180023F00303A1680B431363236813F0020F45
:100E280006D0654A136B23F44033E1680B43136320
:100E3800236813F0040F06D05F4A136B23F4402392
:100E480021690B431363236813F0200F06D05A4A15
:100E5800136B23F01003E1690B431363236813F446
:100E6800003F06D0544A536823F48003A16B0B4318
:100E78005360236813F0400F06D04F4A136B23F0DA
:100E88002003216A0B431363236813F0080F06D06D
:100E9800494A136B23F4401361690B4313632368B6
:100EA80013F0100F06D0444A136B23F44003A169D2
:100EB8000B431363236813F4007F06D03E4A53683C
:100EC80023F40003E16A0B435360236813F0800F97
:100ED80006D0394AD36A23F4F873616A0B43D362A4
:100EE800236813F4807F06D0334AD36A23F47853F7
:100EF800A16A0B43D362236813F4805F06D02E4A9D
:100F0800136B23F48073216B0B431363236813F46F
:100F1800005F4DD0284A136B23F40073616B0B43B9
:100F28001363002045E0002534E7244A136843F49E
:100F380080731360FFF786F90646204B1B6813F48D
:100F4800807F7FF42DAFFFF77DF9801B6428F4D9EB
:100F580003202EE0FFF776F9064618E0022393FAFD
:100F6800A3F3154B596A022393FAA3F3B3FA83F355
:100F780003F01F03012202FA03F30B427FF438AF98
:100F8800FFF760F9801B41F2883398420ED802239C
:100F980093FAA3F293FAA3F3002BDFD0064B196A56
:100FA800E1E7D36923F08053D3612BE7032000E006
:100FB800002003B0F0BD00BF0010024000700040E8
:100FC800008190102DE9F04782B005468846174603
:100FD8001E46FFF737F90A9B1B1A03EB0609FFF7B2
:100FE80031F982462A4B1B68C3F3CB3309FB03F361
:100FF80001932B689C6838EA04030CBF0124002481
:10100800BC4240D0B6F1FF3FF3D0FFF71BF9A0EB8D
:101018000A0048450AD2B9F1000F07D0019A02B177
:101028004A46019B013B01939146E2E72A685368CF
:1010380023F0E00353606B68B3F5827F0BD0AB6A93
:10104800B3F5005F14D0012385F85D30002385F8DF
:101058005C30032018E0AB68B3F5004F02D0B3F55D
:10106800806FECD12A68136823F040031360E6E729
:101078002A68136823F4005313602A68136843F43A
:1010880000531360DFE7002002B0BDE8F08700BF1F
:10109800300000202DE9F04F83B007460D46164674
:1010A800984600238DF80330FFF7CCF80C9B1B1AE9
:1010B80003EB0809FFF7C6F88246D7F800B0314BB2
:1010C8001B6803EB8303C3EBC3031B0D09FB03F38B
:1010D800019302E0B8F1FF3F11D13B689C682C40B6
:1010E800B4424AD0B5F5C06FF4D1002EF2D19BF8C6
:1010F8000C30DBB28DF803309DF80330EAE7FFF7D8
:10110800A1F8A0EB0A0048450AD2B9F1000F07D0B0
:10111800019A02B14A46019B013B01939146DCE7E3
:101128003A68536823F0E00353607B68B3F5827F25
:101138000BD0BB6AB3F5005F14D0012387F85D308C
:10114800002387F85C30032018E0BB68B3F5004F34
:1011580002D0B3F5806FECD13A68136823F04003EE
:101168001360E6E73A68136823F4005313603A689B
:10117800136843F400531360DFE7002003B0BDE8B1
:10118800F08F00BF3000002070B582B004460D46D5
:10119800164600920B4600224FF4C051FFF77AFF23
:1011A800B0B900962B46002280212046FFF70AFF9F
:1011B800A8B900962B4600224FF4C0612046FFF7DD
:1011C80069FF50B1236E43F020032366032004E037
:1011D800236E43F020032366032002B070BD236E04
:1011E80043F0200323660320F7E700286FD010B5EB
:1011F8000446436A33B94368B3F5827F05D00023B8
:10120800C36102E00023036143610023A36294F8F1
:101218005D30002B52D0022384F85D3022681368B9
:1012280023F040031360E368B3F5E06F4CD9002264
:10123800B3F5706F04D0B3F5E06F01D00023A3625B
:10124800636803F48273A16801F404410B432169C4
:1012580001F002010B43616901F001010B43A1692F
:1012680001F400710B43E16901F038010B43216A75
:1012780001F080010B43A16A01F4005120680B437F
:101288000360638B03F00403616A01F010010B43F0
:10129800616B01F008010B43E16801F470610B43D5
:1012A800216813434B602268D36923F40063D36138
:1012B80000202066012384F85D3010BD84F85C307E
:1012C800204600F0C1FDA6E74FF48052B0E70120A8
:1012D80070472DE9F04383B01D4690F85C30012B30
:1012E80000F0F180044688469146012380F85C307E
:1012F800FEF7A8FF074694F85D60F6B2012E40F0AD
:10130800CF80B8F1000F00F0CC80B9F1000F00F0E9
:10131800C880032384F85D3000232366C4F838802E
:10132800A4F83C90A4F83E902364A4F84430A4F8B0
:1013380046302365E364A368B3F5004F1ED02368E5
:101348001A6812F0400F03D11A6842F040021A607E
:10135800E368B3F5E06F3DD9636813B1B9F1010FE4
:1013680023D1A26B23681288DA60A36B0233A363CC
:10137800E38F9BB2013B9BB2E38716E022681368B8
:1013880023F0400313602268136843F4804313601A
:10139800D5E7FEF757FFC01BA84203D3B5F1FF3FBF
:1013A80040F08980002D00F08880E38F9BB2002BED
:1013B80061D023689A6812F0020FEAD0A26B1288F3
:1013C800DA60A36B0233A363E28F92B2013A92B25E
:1013D800E287EAE7636813B1B9F1010F33D1E38F0C
:1013E8009BB2012B0CD9A26B23681288DA60A36B1D
:1013F8000233A363E38F9BB2023B9BB2E38722E0F5
:10140800A26B236812781A73A36B0133A363E38F6B
:101418009BB2013B9BB2E38715E0A36B1B78137368
:10142800A36B0133A363E38F9BB2013B9BB2E387BA
:1014380009E0FEF707FFC01BA84202D3B5F1FF3F42
:101448003DD1002D3DD0E38F9BB2A3B122689368B4
:1014580013F0020FEDD0E38F9BB2012BDDD9A36B04
:101468001B88D360A36B0233A363E38F9BB2023B59
:101478009BB2E387E7E73A4629462046FFF784FE12
:1014880008B120232366A36833B901932368DA6877
:1014980001929B680193019B236E13B9002600E01B
:1014A8000226012384F85D30002384F85C3030463E
:1014B80003B0BDE8F0830326F3E70326F1E703262C
:1014C800EFE70326EDE70226F1E7000010B5044632
:1014D80083680269134342691343C2691A43016866
:1014E8000B6823F4164323F00C0313430B600268C4
:1014F800536823F44053C1680B4353608269036AFD
:101508001A4301688B6823F4306313438B600368C4
:101518007B4A93420DD07B4A93421CD07A4A93422D
:101528003AD07A4A93424AD0794A93425AD0102301
:101538001FE0784B1B6B03F00303032B09D8DFE88C
:1015480003F002040664012313E0042311E00823D6
:101558000FE010230DE06F4B1B6B03F44033B3F522
:10156800003F54D013D8002B53D0B3F5803F52D14D
:101578000423E069B0F5004F69D0082B00F2B98068
:10158800DFE803F092A890B7ABB7B7B7AE00B3F5F2
:10159800403F42D10223ECE75E4B1B6B03F4402330
:1015A800B3F5002F3BD005D8DBB3B3F5802F3AD184
:1015B8000423DEE7B3F5402F37D10223D9E7554B93
:1015C8001B6B03F44013B3F5001F30D005D883B369
:1015D800B3F5801F2FD10423CBE7B3F5401F2CD1DF
:1015E8000223C6E74B4B1B6B03F44003B3F5000F14
:1015F80025D005D82BB3B3F5800F24D10423B8E741
:10160800B3F5400F21D10223B3E70223B1E7082342
:10161800AFE70023ADE71023ABE71023A9E70823C2
:10162800A7E70023A5E71023A3E71023A1E70823D2
:101638009FE700239DE710239BE7102399E70823E2
:1016480097E7002395E7102393E7102391E7082BEA
:1016580049D8DFE803F0051F254822484848090013
:10166800FFF754FB002840D06268530803EB4000A2
:10167800B0FBF2F080B2A0F110024FF6EF739A427D
:1016880035D820F00F03C0F3420018432368D86010
:1016980000201BE0FFF750FBE4E7FFF725FAE1E73E
:1016A8001D48E1E71C4802E0FFF730FB18B3636808
:1016B80000EB5300B0FBF3F080B2A0F110024FF63C
:1016C800EF739A4219D82368D86000200023636614
:1016D800A36610BDFFF730FBE8E7FFF705FAE5E77B
:1016E8004FF40040E3E70120F0E70020EEE7012097
:1016F800ECE70120EAE70020E8E70120E6E700BF81
:10170800003801400044004000480040004C0040C0
:10171800005000400010024000127A00436A13F0A3
:10172800010F06D00268536823F40033816A0B4323
:101738005360436A13F0020F06D00268536823F41B
:101748008033C16A0B435360436A13F0040F06D019
:101758000268536823F48023016B0B435360436A88
:1017680013F0080F06D00268536823F40043416B56
:101778000B435360436A13F0100F06D00268936856
:1017880023F48053816B0B439360436A13F0200F5B
:1017980006D00268936823F40053C16B0B4393602F
:1017A800436A13F0400F0AD00268536823F4801389
:1017B800016C0B435360036CB3F5801F0BD0436A75
:1017C80013F0800F06D00268536823F40023816C5D
:1017D8000B43536070470268536823F4C003416C9D
:1017E8000B435360EBE72DE9F84305460F461646D1
:1017F8009946DDF820802C68E46937EA04030CBFB9
:1018080001240024B44253D1B8F1FF3FF3D0FEF7CE
:1018180019FDA0EB090040452DD8B8F1000F2AD0DA
:101828002B681A6812F0040FE5D0DA6912F4006F19
:10183800E1D04FF400621A622A6852E8003F23F4AC
:10184800D07342E800310029F6D12A6802F1080372
:1018580053E8003F23F00103083242E80031002931
:10186800F3D12023AB67EB67C5F88030002385F8F8
:10187800743003201DE02A6852E8003F23F4D07337
:1018880042E800310029F6D12A6802F1080353E83A
:10189800003F23F00103083242E800310029F3D168
:1018A8002023AB67EB67002385F87430032000E042
:1018B8000020BDE8F88330B583B004460023C0F8A3
:1018C8008030FEF7BFFC054623681B6813F0080F3D
:1018D8000DD123681B6813F0040F16D12023A367CA
:1018E800E3670020206684F8740003B030BD6FF011
:1018F8007E430093034600224FF400112046FFF771
:1019080072FF0028E5D00320EFE76FF07E430093D5
:101918002B4600224FF480012046FFF764FF002881
:10192800DCD00320E1E768B310B50446836F03B346
:101938002423A3672268136823F001031360204659
:10194800FFF7C4FD012813D0636ABBB92268536846
:1019580023F4904353602268936823F02A0393602A
:101968002268136843F0010313602046FFF7A3FFC2
:1019780010BD80F8743000F0F3FAD9E72046FFF77D
:10198800CDFEE3E70120704770B58AB000240594C6
:1019980006940794089409942C4B5A6942F400223F
:1019A8005A615A6902F400220092009A5A6942F474
:1019B80080025A615A6902F480020192019A5A69B6
:1019C80042F400325A615A6902F400320292029AD1
:1019D8005A6942F400125A615A6902F400120392D9
:1019E800039A5A6942F480225A615B6903F480239E
:1019F8000493049B164D22464FF47F412846FEF778
:101A080053FD012605960694079405A94FF09040CA
:101A1800FEF77AFC4FF47F430593069607940894E3
:101A280005A92846FEF770FC4FF4C053059302231E
:101A380006930794032308930E23099305A94FF0EF
:101A48009040FEF761FC0AB070BD00BF0010024074
:101A5800001000482DE9F041864610F0010200D040
:101A6800012200252C46ACE0012707FA06FCA34812
:101A780050F8247027EA0C0740F82470052B25D06D
:101A88000136F6B21F2E23D89D4BA3FB06039B08F5
:101A980003EB4303A6EB4303DBB2570007EB020C4F
:101AA800984F07EB4C0717F803C00F7847FA0CF765
:101AB80017F0010FD8D0012707FA06FC8F4850F815
:101AC800247047EA0C0740F82470D7E70131D7E7BC
:101AD80000260FE004F10108012707FA06FC8748F1
:101AE80050F8287027EA0C0740F82870032B28D0F4
:101AF8000136F6B21F2E26D8814BA3FB06039B089E
:101B080003EB4303A6EB4303DBB2570007EB020CDE
:101B18007C4F07EB4C071F4497F80CC00F7847FA27
:101B28000CF717F0010FD5D004F10108012707FAC7
:101B380006FC724850F8287047EA0C0740F82870ED
:101B4800D4E70131D4E700260FE004F102080127A9
:101B580007FA06FC694850F8287027EA0C0740F88D
:101B68002870012B28D00136F6B21F2E26D8644BD8
:101B7800A3FB06039B0803EB4303A6EB4303DBB27B
:101B8800570007EB020C5F4F07EB4C071F4497F811
:101B980018C00F7847FA0CF717F0010FD5D004F1E9
:101BA8000208012707FA06FC544850F8287047EA4B
:101BB8000C0740F82870D4E70131D4E70135EDB2BD
:101BC8000324012D01D800265CE700240BE0012541
:101BD80005FA04F6494FBD6925EA0605BD61052BDE
:101BE8001FD00134E4B21F2C1DD8454BA3FB0403BE
:101BF8009B0803EB4303A4EB4303DBB25500AE1889
:101C0800404D05EB4605EE5C0D78354115F0010FAA
:101C1800DDD0012505FA04F6384FBD693543BD61AD
:101C2800DDE70131DDE700240BE0012505FA04F6C4
:101C3800324FFD6925EA0605FD61032B20D00134EA
:101C4800E4B2092C1ED82E4BA3FB04039B0803EB1C
:101C58004303A4EB4303DBB25500AE18294D05EB53
:101C680046051D442E7B0D78354115F0010FDCD05B
:101C7800012505FA04F6214FFD693543FD61DCE7CE
:101C88000131DCE7BEF1150F1BD80EF10903012263
:101C980002FA03F31949CC6923430EF10A00824082
:101CA8001343CB61154E06F1240435460FCD0FC4FE
:101CB8000FCD0FC42B6823600023F3613362BDE8A6
:101CC800F081BEF1160F0ED0AEF11703012202FA11
:101CD80003F30A490C6A2343AEF1160002FA00F036
:101CE80003430B62DEE7054BDA6942F00042DA6132
:101CF8001A6A42F001021A62D4E700BF50000020BD
:101D0800ABAAAAAAB820000810B5104C01224FF4BB
:101D180080712046FEF7C8FB01224FF4007120466F
:101D2800FEF7C2FB00224FF400712046FEF7BCFB11
:101D380000224FF480712046FEF7B6FB4FF0FF33C8
:101D4800242203490348FFF7C4FA10BD00100048D5
:101D5800740000209C00002070B59EB000241594EB
:101D6800169417941A940F9410941194129413942F
:101D78003C222146684600F077F902261496012590
:101D88001895102319931B961C944FF420131D9338
:101D980014A8FEF78FFB0F230F93109611944FF49E
:101DA80080631293139429460FA8FEF7D5FE009579
:101DB80002946846FEF7D6FF1EB070BD10B5FEF758
:101DC80023FAFFF7C9FFFFF7DFFD00F015F800F071
:101DD800ABF8012000E02046441CE4B20449FFF7B8
:101DE80039FEFFF791FF342CF5D90120F4E700BF45
:101DF800080000207047000008B51148114B036027
:101E08004FF482734360002383604FF4E062C26042
:101E180002220261012242614FF4007282611022A3
:101E2800C26180220262436283620722C262036344
:101E38004363FFF7DAF900B908BDFFF7DBFFFBE7FB
:101E48009C0000200038004000B589B000230393AF
:101E580004930593069307930268154B9A4202D0A0
:101E680009B05DF804FB03F5EC33DA6942F480420B
:101E7800DA61DA6902F480420192019A5A6942F4FD
:101E880080225A615B6903F480230293029B4FF41A
:101E9800204303930223049300230593032306930B
:101EA8000523079303A90348FEF72EFAD8E700BFD6
:101EB800003800400004004800B583B00C4B9A6914
:101EC80042F001029A619A6902F001020092009AB6
:101ED800DA6942F08052DA61DB6903F080530193DA
:101EE800019B0720FEF7B4F903B05DF804FB00BFBF
:101EF800001002407047FEE7FEE7FEE7FEE7704786
:101F08007047704708B5FEF791F908BD054BD3F83F
:101F1800882042F47002C3F888204FF000629A606B
:101F2800704700BF00ED00E008B50B480B4B03609D
:101F38004FF41643436000238360C36003610C229F
:101F480042618361C36103624362FFF7ECFC00B93D
:101F580008BDFFF74FFFFBE70001002000380140F4
:101F680000B589B000230393049305930693079360
:101F78000268144B9A4202D009B05DF804FB03F5DD
:101F880058439A6942F480429A619A6902F48042FD
:101F98000192019A5A6942F400225A615B6903F47A
:101FA80000230293029B302303930223049300230C
:101FB8000593032306930723079303A90248FEF713
:101FC800A3F9D9E70038014000080048DFF834D009
:101FD8000D480E490E4A002302E0D458C450043379
:101FE800C4188C42F9D30B4A0B4C002301E0136050
:101FF8000432A242FBD3FFF789FF00F011F8FFF784
:10200800DDFEFEE700A000200000002034000020D4
:10201800FC2000083400002084010020FEE70000B6
:1020280070B50D4D0D4C641BA4100026A64209D1B5
:102038000B4D0C4C00F020F8641BA4100026A6429F
:1020480005D170BD55F8043B98470136EEE755F8C1
:10205800043B98470136F2E7F4200008F420000812
:10206800F4200008F820000802440346934200D1F7
:10207800704703F8011BF9E7F8B500BFF8BC08BCC6
:102088009E467047F8B500BFF8BC08BC9E4670472E
:1020980002030405060708090A0B0C0D0E0F1010A1
:1020A8000102030405060708090A0B0C0D0E0F10A0
:1020B80000020003000407000600050000030004F6
:1020C80000020600050007000004000200030500E6
:1020D80007000600000000000000000001020304E1
:0C20E800060708090000000001020304C4
:0420F400AD01000832
:0420F8008901000852
:1020FC00010000001000000054A854A854A854A8D3
:10210C0054A854A854A854A854A854A854A854A8E3
:10211C0054A854A854A854A854A854A854A854007B
:04212C0000127A0023
:0400000508001FD5FB
:00000001FF
