:020000040800F2
:1000000000A00020FD270008F1260008F3260008C4
:10001000F5260008F7260008F92600080000000071
:10002000000000000000000000000000FB260008A7
:10003000FD26000800000000FF2600080127000838
:100040004D2800084D2800084D2800084D280008BC
:100050004D2800084D2800084D2800084D280008AC
:100060004D2800084D280008092700084D280008E1
:10007000152700084D2800084D28000825270008EE
:100080004D2800084D2800084D2800084D2800087C
:100090004D2800084D2800084D2800084D2800086C
:1000A0004D2800084D2800084D2800084D2800085C
:1000B0004D2800084D2800084D2800084D2800084C
:1000C0004D2800084D2800084D2800083527000855
:1000D0004D2800084D2800084D2800084D2800082C
:1000E0004D2800084D2800084D2800084D2800081C
:1000F0004D2800084D2800084D2800084D2800080C
:100100000000000000000000000000004D28000872
:100110004D2800084D2800084D2800084D280008EB
:100120004D2800084D2800084D2800084D280008DB
:100130004D2800084D2800080000000000000000C5
:100140004D2800084D2800084D2800080000000038
:10015000000000000000000000000000000000009F
:1001600000000000000000004D2800084D28000895
:100170004D28000800000000000000000000000002
:08018000000000004D280008FA
:1001880010B5054C237833B9044B13B10448AFF3C9
:1001980000800123237010BD7400002000000000BF
:1001A800D029000808B5034B1BB103490348AFF336
:1001B800008008BD0000000078000020D029000859
:1001C80010B504460E4B18784FF47A73B3FBF0F36E
:1001D8000C4A1068B0FBF3F000F08EF868B90F2CE9
:1001E80001D901200AE0002221464FF0FF3000F03B
:1001F80041F8034B5C60002000E0012010BD00BF07
:10020800000000200C00002008B5074A136843F0DE
:1002180010031360032000F01BF80F20FFF7D0FF36
:1002280002F04AFA002008BD00200240034A116883
:10023800034B1B780B441360704700BFF800002085
:1002480000000020014B1868704700BFF80000202C
:10025800074AD36823F4E0631B041B0C000200F474
:10026800E060034343F0BF6343F40033D360704757
:1002780000ED00E030B4174BDB68C3F30223C3F191
:100288000704042C28BF04241D1D062D18D9033B80
:100298004FF0FF3505FA04F421EA0401994005FA04
:1002A80003F322EA0303194300280BDB0901C9B24F
:1002B80000F1604000F5614080F8001330BC7047E1
:1002C8000023E5E700F00F000901C9B2024B1954F9
:1002D800F4E700BF00ED00E014ED00E0002807DBC4
:1002E80000F01F02400901239340024A42F82030DF
:1002F800704700BF00E100E00138B0F1807F0AD20A
:10030800064B5860064AF02182F8231000209860B6
:1003180007221A6070470120704700BF10E000E014
:1003280000ED00E070B4066CC56B0124B4406C604D
:10033800046863604368102B05D0036899600368FC
:10034800DA6070BC704703689A600368D960F8E7A0
:1003580002680C4B9A420AD80B4B13440B4AA2FB77
:1003680003231B099B000364094BC3637047094BB4
:100378001344064AA2FB03231B099B000364064B94
:10038800C363704707040240F8FFFDBFCDCCCCCC57
:1003980000000240F8FBFDBF0004024020B310B586
:1003A8000446022380F8213001680A6822F47F524B
:1003B80022F03002436880680343E0680343206901
:1003C800034360690343A0690343E069034313439C
:1003D8000B602046FFF7BCFF0020A063012384F8D0
:1003E800213084F8200010BD0120704738B504463C
:1003F80090F82000012831D0012084F8200094F8DA
:100408002100012804D0002384F82030022038BDC0
:10041800022084F821000020A0632568286820F0C5
:10042800010028602046FFF77DFFE36A5BB1226880
:10043800136843F00E0313602268136843F0010346
:1004480013600020E3E72268136843F00A0313608F
:100458002268136823F004031360EDE70220D6E74F
:1004680008B590F82130022B03D0042383630120C0
:1004780008BD0268136823F00E031360026813684E
:1004880023F001031360036CC16B012202FA03F32A
:100498004B6080F82120002380F82030436B13B193
:1004A80098470020E4E70020E2E738B5C36B1A68F4
:1004B80004682568016C04238B40134213D015F09F
:1004C800040F10D0236813F0200F03D1236823F002
:1004D80004032360016CC26B04238B405360C36A1E
:1004E80003B1984738BD02238B4013421AD015F048
:1004F800020F17D0236813F0200F06D1236823F0CA
:100508000A032360012380F82130016CC26B0223A7
:100518008B405360002380F82030836A002BE1D0A1
:100528009847DFE7082303FA01F11142DAD015F002
:10053800080FD7D0236823F00E032360026CC16B29
:10054800012303FA02F24A60836380F82130002312
:1005580080F82030036B002BC4D09847C2E7000016
:10056800F0B482B000235BE086685F000325BD40DD
:1005780026EA0506CD68BD4035438560466826EA0B
:1005880004064D68C5F300149C403443446055E0AC
:10059800DD08083550F8257003F00704A6000F247D
:1005A800B44027EA04070C69B4403C4340F82540AE
:1005B80058E0042400E00024B4403C4302354C4E8B
:1005C80046F825404B4C2568D44325EA02064F6877
:1005D80017F4803F01D042EA0506464D2E606D684B
:1005E80004EA05064F6817F4003F01D042EA050601
:1005F800404D6E60AD6804EA05064F6817F4801F29
:1006080001D042EA05063B4DAE60ED682C404E68CD
:1006180016F4001F01D042EA0504364AD4600133BB
:100628000A6832FA03F45FD001249C402240F6D0D5
:100638004D6805F00305013D012D95D94C6804F07E
:100648000304032C09D0C5685E000324B44025EADE
:1006580004058C68B4402C43C4604C6804F003045F
:10066800022C95D005685E000324B44025EA0405F1
:100678004C6804F00304B4402C4304604C6814F440
:10068800403FCCD01C4CA56945F00105A561A46983
:1006980004F001040194019C9D08AE1C144C54F80C
:1006A800267003F00304A6000F24B44027EA0407C9
:1006B800B0F1904F3FF47FAF104CA0420ED004F53C
:1006C8008064A0420CD004F58064A0420AD004F5EE
:1006D8008064A0423FF46DAF05246DE701246BE709
:1006E800022469E7032467E702B0F0BC704700BF43
:1006F80000000140000401400010024000040048CE
:100708000AB18161704781627047000008B5054BE6
:100718005B69034200D108BD024B586101F0CCFE71
:10072800F9E700BF00040140002800F0018370B51C
:1007380082B00446036813F0010F3BD0B54B5B68E9
:1007480003F00C03042B1ED0B24B5B6803F00C03C0
:10075800082B13D06368B3F5803F68D0002B40F0B6
:10076800928003F1804303F504331A6822F480323F
:100778001A601A6822F480221A605DE0A54B5B6853
:1007880013F4803FE6D04FF4003393FAA3F3A14B60
:1007980019684FF4003393FAA3F3B3FA83F303F021
:1007A8001F03012202FA03F30B4203D06368002BF4
:1007B80000F0C082236813F0020F00F0C580954B4B
:1007C8005B6813F00C0F00F09C80924B5B6803F0A1
:1007D8000C03082B00F08F802369002B00F0F280B7
:1007E800012292FAA2F3B3FA83F303F1845303F5D7
:1007F80084139B001A60FFF725FD0546022393FA30
:10080800A3F3844B1968022393FAA3F3B3FA83F38F
:1008180003F01F03012202FA03F30B4240F0C380E6
:10082800FFF710FD401B0228E8D903208BE2794A24
:10083800136843F480331360764AD36A23F00F03B6
:10084800A1680B43D3626368002B36D0FFF7FAFC2C
:1008580005464FF4003393FAA3F36E4B19684FF42F
:10086800003393FAA3F3B3FA83F303F01F030122CF
:1008780002FA03F30B429DD1FFF7E4FC401B642806
:10088800E7D903205FE2B3F5A02F09D0614B1A68BE
:1008980022F480321A601A6822F480221A60CBE7A8
:1008A80003F18043A3F53C331A6842F480221A60AE
:1008B8001A6842F480321A60BEE7FFF7C3FC0546A7
:1008C8004FF4003393FAA3F3524B19684FF40033F3
:1008D80093FAA3F3B3FA83F303F01F03012202FA96
:1008E80003F30B423FF466AFFFF7ACFC401B6428F0
:1008F800E6D9032027E2474B5B6813F4803F7FF477
:100908006BAF022393FAA3F3424B1968022393FABD
:10091800A3F3B3FA83F303F01F03012202FA03F3EC
:100928000B4203D02369934240F00682394803689A
:1009380023F0F8036169F82292FAA2F2B2FA82F27D
:1009480001FA02F213430360236813F0080F00F062
:100958008D80A369002B61D0012191FAA1F2B2FA2E
:1009680082F22D4B13449B001960FFF76BFC054680
:10097800022393FAA3F293FAA3F293FAA3F2254A75
:10098800516A93FAA3F3B3FA83F303F01F03012226
:1009980002FA03F30B4269D1FFF754FC401B02280B
:1009A800E6D90320CFE11B48036823F0F803616907
:1009B800F82292FAA2F2B2FA82F201FA02F2134390
:1009C8000360C1E7012393FAA3F3B3FA83F303F1B6
:1009D800845303F584139B0000221A60FFF732FC4E
:1009E8000546022393FAA3F30A4B1968022393FAE4
:1009F800A3F3B3FA83F303F01F03012202FA03F30C
:100A08000B42A1D0FFF71EFC401B0228E9D90320A6
:100A180099E100BF0010024020819010012292FA53
:100A2800A2F2B2FA82F2B74B13449B0000221A607A
:100A3800FFF708FC0546022393FAA3F293FAA3F200
:100A480093FAA3F2B04A516A93FAA3F3B3FA83F381
:100A580003F01F03012202FA03F30B4206D0FFF74B
:100A6800F1FB401B0228E6D903206CE1236813F050
:100A7800040F00F0A980A44BDB6913F0805F0BD151
:100A8800A14BDA6942F08052DA61DB6903F08053E6
:100A98000193019B012500E000259C4B1B6813F482
:100AA800807F10D0E368012B21D063BB03F1804322
:100AB80003F504331A6A22F001021A621A6A22F054
:100AC80004021A6218E0914A136843F480731360B1
:100AD800FFF7B8FB06468D4B1B6813F4807FE1D106
:100AE800FFF7B0FB801B6428F5D903202BE1864A69
:100AF800136A43F001031362E368002B3CD0FFF74D
:100B0800A1FB06462EE0052B09D07F4B1A6A22F07E
:100B180001021A621A6A22F004021A62ECE77A4B9E
:100B28001A6A42F004021A621A6A42F001021A6250
:100B3800E2E7022393FAA3F3734B596A022393FA69
:100B4800A3F3B3FA83F303F01F03012202FA03F3BA
:100B5800194238D1FFF776FB801B41F2883398425F
:100B680000F2EC80022393FAA3F293FAA3F3002B8A
:100B7800DFD0654B196AE1E7FFF764FB064618E02A
:100B8800022393FAA3F3604B596A022393FAA3F35F
:100B9800B3FA83F303F01F03012202FA03F31942A5
:100BA80011D0FFF74FFB801B41F28833984200F2C7
:100BB800C780022393FAA3F293FAA3F3002BDFD0A2
:100BC800514B196AE1E7B5BBE369002B00F0BA8025
:100BD8004D4A526802F00C02082A00F09980022B54
:100BE8002FD04FF0807393FAA3F3B3FA83F303F192
:100BF800845303F584139B0000221A60FFF722FB3D
:100C080004464FF0007393FAA3F33F4B19684FF073
:100C1800007393FAA3F3B3FA83F303F01F030122DB
:100C280002FA03F319426BD0FFF70CFB001B0228F2
:100C3800E7D9032087E0344AD36923F08053D3618E
:100C4800C2E74FF0807393FAA3F3B3FA83F303F187
:100C5800845303F584139B0000221A60FFF7F2FA0D
:100C680005464FF0007393FAA3F3274B19684FF02A
:100C7800007393FAA3F3B3FA83F303F01F0301227B
:100C880002FA03F3194206D0FFF7DCFA401B0228E8
:100C9800E7D9032057E01C494B6823F47413626AB0
:100CA800206A024313434B604FF0807393FAA3F317
:100CB800B3FA83F303F1845303F584139B000122F1
:100CC8001A60FFF7BFFA04464FF0007393FAA3F3D4
:100CD8000D4B19684FF0007393FAA3F3B3FA83F33B
:100CE80003F01F03012202FA03F3194206D1FFF7AA
:100CF800A9FA001B0228E7D9032024E0002022E0FB
:100D0800002020E020819010001002400070004078
:100D1800012B1AD0104B5B6803F48031226A914290
:100D280015D103F47013626A934212D100200AE0CD
:100D380001207047012006E0012004E0032002E0C2
:100D4800032000E0002002B070BD0120FBE7012075
:100D5800F9E70120F7E700BF00100240174B5B6876
:100D680003F00C02082A01D01548704710B403F4A8
:100D780070114FF4701292FAA2F2B2FA82F221FACA
:100D880002F2104CA05C0D4AD26A02F00F020F2149
:100D980091FAA1F1B1FA81F1CA402244127C13F40C
:100DA800803F07D0064BB3FBF2F300FB03F05DF87E
:100DB800044B7047044B03FB00F0F8E700100240B7
:100DC80000127A00E829000800093D00002800F018
:100DD800BE8070B50D460446614B1B6803F00703DF
:100DE8008B420BD25E4A136823F007030B43136050
:100DF800136803F007038B4240F0AB80236813F0BD
:100E0800020F06D0574A536823F0F003A1680B433A
:100E18005360236813F0010F5AD06368012B2DD05B
:100E2800022B40D0022292FAA2F24E4A1068022205
:100E380092FAA2F2B2FA82F202F01F02012101FA3A
:100E480002F2104200F0878046494A6822F0030205
:100E580013434B60FFF7F6F90646424B5B6803F015
:100E68000C036268B3EB820F32D0FFF7EBF9801BFB
:100E780041F288339842F0D9032067E04FF40032FA
:100E880092FAA2F2374A10684FF4003292FAA2F2AC
:100E9800B2FA82F202F01F02012101FA02F20242C2
:100EA800D2D1012052E04FF0007292FAA2F22D4AFC
:100EB80010684FF0007292FAA2F2B2FA82F202F0CF
:100EC8001F02012101FA02F21042BDD101203DE0CA
:100ED800234B1B6803F00703AB420AD9204A136867
:100EE80023F007032B431360136803F00703AB4297
:100EF80033D1236813F0040F06D01A4A536823F439
:100F0800E063E1680B435360236813F0080F07D0D0
:100F1800144A536823F46053216943EAC1035360B8
:100F2800FFF71CFF0F4B5B6803F0F003F02292FA07
:100F3800A2F2B2FA82F2D3400B4AD35CD8400B4BF0
:100F480018600B4B1868FFF73BF9002070BD0120B3
:100F580070470120FAE70120F8E70120F6E700BF13
:100F680000200240001002402C2D00080C00002038
:100F7800040000202DE9F04782B005468846174650
:100F88001E46FFF75FF90A9B1B1A03EB0609FFF7DA
:100F980059F982462A4B1B68C3F3CB3309FB03F389
:100FA80001932B689C6838EA04030CBF01240024D1
:100FB800BC4240D0B6F1FF3FF3D0FFF743F9A0EBB6
:100FC8000A0048450AD2B9F1000F07D0019A02B1C8
:100FD8004A46019B013B01939146E2E72A68536820
:100FE80023F0E00353606B68B3F5827F0BD0AB6AE4
:100FF800B3F5005F14D0012385F85D30002385F830
:101008005C30032018E0AB68B3F5004F02D0B3F5AD
:10101800806FECD12A68136823F040031360E6E779
:101028002A68136823F4005313602A68136843F48A
:1010380000531360DFE7002002B0BDE8F08700BF6F
:101048000C0000202DE9F04F83B007460D461646E8
:10105800984600238DF80330FFF7F4F80C9B1B1A11
:1010680003EB0809FFF7EEF88246D7F800B0314BDA
:101078001B6803EB8303C3EBC3031B0D09FB03F3DB
:10108800019302E0B8F1FF3F11D13B689C682C4006
:10109800B4424AD0B5F5C06FF4D1002EF2D19BF816
:1010A8000C30DBB28DF803309DF80330EAE7FFF728
:1010B800C9F8A0EB0A0048450AD2B9F1000F07D0D9
:1010C800019A02B14A46019B013B01939146DCE734
:1010D8003A68536823F0E00353607B68B3F5827F76
:1010E8000BD0BB6AB3F5005F14D0012387F85D30DD
:1010F800002387F85C30032018E0BB68B3F5004F85
:1011080002D0B3F5806FECD13A68136823F040033E
:101118001360E6E73A68136823F4005313603A68EB
:10112800136843F400531360DFE7002003B0BDE801
:10113800F08F00BF0C00002070B582B004460D4649
:10114800164600920B4600224FF4C051FFF77AFF73
:10115800B0B900962B46002280212046FFF70AFFEF
:10116800A8B900962B4600224FF4C0612046FFF72D
:1011780069FF50B1236E43F020032366032004E087
:10118800236E43F020032366032002B070BD236E54
:1011980043F0200323660320F7E770B582B00446C6
:1011A8000D4616464368B3F5827F0DD000962B4650
:1011B800002280212046FFF7DDFE90B96368B3F571
:1011C800827F14D002B070BD8368B3F5004F02D09F
:1011D800B3F5806FEAD12268136823F040031360E7
:1011E800E4E7236E43F0200323660320EAE7A368BD
:1011F800B3F5004F02D0B3F5806FE3D100962B46CC
:1012080000224FF4C0612046FFF71CFF0028D9D008
:10121800236E43F0200323660320D3E700286FD012
:1012280010B50446436A33B94368B3F5827F05D0E5
:101238000023C36102E00023036143610023A3622A
:1012480094F85D30002B52D0022384F85D30226878
:10125800136823F040031360E368B3F5E06F4CD9DB
:101268000022B3F5706F04D0B3F5E06F01D000230E
:10127800A362636803F48273A16801F404410B4319
:10128800216901F002010B43616901F001010B437F
:10129800A16901F400710B43E16901F038010B43C6
:1012A800216A01F080010B43A16A01F40051206812
:1012B8000B430360638B03F00403616A01F01001C0
:1012C8000B43616B01F008010B43E16801F47061A5
:1012D8000B43216813434B602268D36923F40063EE
:1012E800D36100202066012384F85D3010BD84F8A6
:1012F8005C30204601F042F9A6E74FF48052B0E78F
:101308000120704738B590F85C30012B00F08C80D4
:101318000446012380F85C3090F85D50EDB29D42A0
:101328007CD100297BD0002A79D0032380F85D3056
:101338000023036681638287C28703640365C364ED
:10134800A0F84430A0F846308368B3F5004F39D090
:10135800636D364ADA62636D354A9A62636D354A5F
:101368001A63636D00225A632268536823F480432A
:101378005360E368B3F5E06F04D8636D5B69B3F558
:10138800806F2AD02268E38F9BB20C32A16B606D0C
:10139800FFF72CF80146002838D123681A6812F0A4
:1013A800400F03D11A6842F040021A60226853685D
:1013B80043F0200353602268536843F002035360EC
:1013C8000D462CE00268136823F04003136002689E
:1013D800136843F480431360BAE7E38F13F0010FF7
:1013E80009D12268536823F480435360E38FC3F321
:1013F8004E03E387C6E72268536843F4804353608B
:10140800E38FC3F34E030133E387BBE7236E43F057
:1014180010032366012384F85D3000E002250023D1
:1014280084F85C30284638BD0225FBE70718000819
:101438004D1800082B18000838B5044690F85C00D1
:10144800012800F00381012084F85C0094F85D0015
:10145800C0B2656801280AD0B5F5827F40F0E58002
:10146800A568002D40F0E680042840F0E5800029BA
:1014780000F0E480002A00F0E380002B00F0E28016
:1014880094F85D00C0B2042802D0052084F85D00FD
:1014980000202066A163A387E3872264A4F8443070
:1014A800A4F84630E0642065E368B3F5E06F05D83A
:1014B800A36D5B69B3F5806F00F0C680226853683E
:1014C80023F4C0435360E368B3F5E06F28D922687A
:1014D800536823F48053536094F85D30DBB2042BD7
:1014E80069D0A36D5A4ADA62A36D5A4A9A62A36D0B
:1014F800594A1A63A36D00225A632168B4F846302A
:101508009BB2226C0C31A06DFEF770FF002859D0F9
:10151800236E43F010032366012084F85D0085E004
:101528002268536843F480535360636D5B69B3F575
:10153800806F1AD0A36D5B69B3F5806FCCD1226838
:10154800536823F480535360B4F8463013F0010F06
:1015580024D12268536823F400535360B4F846300A
:10156800C3F34E03A4F84630B6E7A38F13F0010F78
:1015780009D12268536823F480435360E38FC3F38F
:101588004E03E387D6E72268536843F480435360E9
:10159800E38FC3F34E030133E387CBE72268536835
:1015A80043F400535360B4F84630C3F34E03013399
:1015B800A4F8463090E7A36D284ADA62A36D284A5A
:1015C8009A6294E72268536843F001035360626D9E
:1015D8000023D362626D9362626D1363626D53631D
:1015E8002268E38F9BB20C32A16B606DFEF7FEFEA2
:1015F80098B923681A6812F0400F03D11A6842F0AC
:1016080040021A602268536843F02003536022683E
:10161800536843F00203536008E0236E43F010035D
:101628002366012084F85D0000E00220002384F88E
:101638005C3038BD0220F9E70220F7E70120F5E722
:101648000120F3E70120F1E70120EFE70220F0E7AE
:101658001F1800082D1900082B1800081318000877
:10166800BD18000838B5044683681BB94068B0F552
:10167800827F69D094F85C00012800F0B5800120D1
:1016880084F85C0094F85D50EDB2854240F0A68085
:10169800002900F0A480002A00F0A180042084F82A
:1016A8005D00002020662164A4F84420A4F84620A8
:1016B800E0642065A087E087B3F5004F4ED0E3686B
:1016C800B3F5E06F05D8A36D5B69B3F5806F00F0E3
:1016D80086802268536823F400535360E368B3F5A7
:1016E800E06F46D92268536823F480535360A36D92
:1016F8003E4ADA62A36D3E4A9A62A36D3D4A1A6376
:10170800A36D00225A632168B4F846309BB2226C5C
:101718000C31A06DFEF76AFE0146002856D12368F9
:101728001A6812F0400F03D11A6842F040021A609A
:101738002268536843F0200353602268536843F0DB
:10174800010353600D464AE0042384F85D301346D4
:101758000A462046FFF770FE054643E022681368F4
:1017680023F0400313602268136823F48043136056
:10177800A5E72268536843F480535360A36D5B69FF
:10178800B3F5806FB3D12268536823F48053536054
:10179800B4F8463013F0010F0BD12268536823F4D4
:1017A80000535360B4F84630C3F34E03A4F84630F0
:1017B8009DE72268536843F400535360B4F84630F9
:1017C800C3F34E030133A4F8463090E7236E43F089
:1017D80010032366012384F85D3000E0022500230E
:1017E80084F85C30284638BD0225FBE7131800084A
:1017F800BD1800082B18000870477047704708B5D7
:10180800406AFFF7FBFF08BD704708B5406AFFF75D
:10181800FBFF08BD704708B5406AFFF7FBFF08BD2E
:10182800704708B5406A0268536823F003035360A1
:10183800036E43F010030366012380F85D30FFF761
:10184800EFFF08BD30B583B00546446AFEF7FAFCE1
:101858002B681B6813F0200F23D1024621684B68C0
:1018680023F020034B6021684B6823F002034B6090
:1018780064212046FFF760FC18B1236E43F0200373
:101888002366A36833B901932368DA6801929B68D9
:101898000193019B0023E387012384F85D30236EC5
:1018A80023B92046FFF7A8FF03B030BD2046FFF755
:1018B800B7FFF9E738B50546446AFEF7C3FC2B685D
:1018C8001B6813F0200F1FD1024621684B6823F0D4
:1018D80020034B60A3681BB96368B3F5827F17D0F8
:1018E80021684B6823F001034B6064212046FFF711
:1018F80054FC08B1202323660023A4F846300123B2
:1019080084F85D30236E4BB9204600F0E3FD38BD06
:1019180021684B6823F003034B60E6E72046FFF796
:101928007FFFF4E738B50546446AFEF78BFC2B6861
:101938001B6813F0200F1CD1024621684B6823F066
:1019480020034B6064212046FFF7F6FB18B1236E95
:1019580043F0200323662268536823F0030353608F
:101968000023E387A4F84630012384F85D30236E12
:101978001BB92046FFF741FF38BD2046FFF750FF4F
:10198800FAE7000030B585B00446026851689368EC
:10199800C3F3801013F0400F05D113F0010F02D0EC
:1019A80011F0400F69D113F0020F02D011F0800F2F
:1019B80067D1C3F3401513F0200F03D110B913F406
:1019C800807F61D011F0200F5ED078B194F85D006F
:1019D800C0B203285AD0206E40F0040020660020D0
:1019E8000090D068009090680090009865B1206ED3
:1019F80040F0010020660020029090680290106874
:101A080020F040001060029A13F4807F09D0236E02
:101A180043F0080323660023039323689B6803931A
:101A2800039B236E002B2FD02268536823F0E0031A
:101A38005360012384F85D3011F0030F2ED0226823
:101A4800536823F003035360A36D4BB1154A5A63DF
:101A5800A06DFEF705FD18B1236E43F04003236621
:101A6800636D8BB10F4A5A63606DFEF7F9FC58B18C
:101A7800236E43F04003236606E0E36C2046984754
:101A880002E0236D2046984705B030BD002301933E
:101A9800D368019393680193019BF5E72046FFF70C
:101AA800BFFEF1E7B11A000808B5406A0023A0F8A4
:101AB8004630C387FFF7B4FE08BD000090F83D30FC
:101AC800DBB2012B2DD1022380F83D300368184A80
:101AD800934218D0B3F1804F15D0A2F594329342B7
:101AE80011D002F5806293420DD002F596329342EE
:101AF80009D002F54062934205D01A6842F001020B
:101B08001A600020704799680A4A0A40062A0AD0D3
:101B1800B2F5803F09D01A6842F001021A6000202D
:101B2800704701207047002070470020704700BFB1
:101B3800002C01400700010003682C4A90420ED097
:101B4800B0F1804F0BD0A2F59432904207D002F545
:101B58008062904203D002F59632904203D123F07E
:101B680070034A681343214A90421AD0B0F1804F5B
:101B780017D0A2F59432904213D002F580629042B9
:101B88000FD002F5963290420BD002F54062904297
:101B980007D002F58062904203D002F5806290423D
:101BA80003D123F44073CA68134323F080034A69BE
:101BB800134303608B68C3620B6883620B4B9842C4
:101BC8000FD003F5006398420BD003F540639842A9
:101BD80007D003F58063984203D003F580639842E9
:101BE80001D10B690363012343617047002C014055
:101BF80060B310B5044690F83D3013B3022384F85F
:101C08003D30214651F8040BFFF796FF012384F875
:101C1800483084F83E3084F83F3084F8403084F807
:101C2800413084F8423084F8433084F8443084F8F2
:101C3800453084F8463084F8473084F83D30002039
:101C480010BD80F83C3000F0BFFDD7E70120704799
:101C580090FAA0F0000E7047034B1A6800235362F5
:101C6800536A8342FCD370475C0200202DE9F84395
:101C78000546894611F0010400D0012424220021E0
:101C8800B04800F021FE09F1FF331A46002B12DBA1
:101C9800C2F3C70202EB4202594203F0070301F004
:101CA800070158BF4B42072B17D8DFE803F01A1A71
:101CB800353550506565DA1DEAE701EB81039B0075
:101CC8009BB213449BB29F48476AFB5C084480F868
:101CD80028300131C9B22629EFD900200246014631
:101CE8002AE10021F7E701EB81039B009BB2134433
:101CF8009BB2944F7E6AF05C8001C0B20F443344BB
:101D08005B789B0803F03C03034387F828300131D4
:101D1800C9B22629E7D9E0E70021FAE701EB8103F8
:101D28009B009BB21344874F786A10FA83F3587864
:101D38000001C0B20F449B781B0903F00C03034356
:101D480087F828300131C9B22629E7D9C5E700212B
:101D5800FAE701EB81039B009BB213447948476A79
:101D680017FA83F39B789B00084480F828300131E8
:101D7800C9B22629EDD9B0E70021FAE701EBD70C63
:101D880007F007084FF0010E0EFA08F86D4E16F826
:101D98000CE02EEA080E06F80CE0052B2ED00137D1
:101DA800FFB21F2F2DD8674B134493F828C0664BFA
:101DB800A3FB07639B0803EB4303A7EB4303DBB2D7
:101DC8004FEA440E0EEB0408604E06EB480E1EF870
:101DD80003E04CFA0EFC1CF0010FCFD001EBD70C3E
:101DE80007F007084FF0010E0EFA08F8554E16F8DE
:101DF8000CE04EEA080E06F80CE0CEE70132D2B24B
:101E0800CDE7002715E04FEAD70C0CF1040C8C4401
:101E180007F007084FF0010E0EFA08F8494E16F8B9
:101E28000CE02EEA080E06F80CE0032B32D001373E
:101E3800FFB21F2F31D8434B134493F828C0424BAD
:101E4800A3FB07639B0803EB4303A7EB4303DBB246
:101E58004FEA440E0EEB04083C4E06EB480E9E4437
:101E68009EF80CE04CFA0EFC1CF0010FCBD04FEAA8
:101E7800D70C0CF1040C8C4407F007084FF0010E46
:101E88000EFA08F82F4E16F80CE04EEA080E06F87F
:101E98000CE0CAE70132D2B2C9E7002715E04FEAE1
:101EA800D70C0CF1080C8C4407F007084FF0010E12
:101EB8000EFA08F8234E16F80CE02EEA080E06F87B
:101EC8000CE0012B32D00137FFB21F2F31D81D4B48
:101ED800134493F828C01C4BA3FB07639B0803EB30
:101EE8004303A7EB4303DBB24FEA440E0EEB0408AF
:101EF800164E06EB480E9E449EF818E04CFA0EFC6F
:101F08001CF0010FCBD04FEAD70C0CF1080C8C4415
:101F180007F007084FF0010E0EFA08F8094E16F8F8
:101F28000CE04EEA080E06F80CE0CAE70132D2B21D
:101F3800C9E70130C0B20C21012801D8002730E7D9
:101F4800002118E090000020ABAAAAAA082A0008DD
:101F5800C808183001F0070C012707FA0CFCDFF855
:101F6800F0E11EF8007027EA0C070EF80070052B48
:101F78002BD00131C9B21F292AD8754B134493F8C5
:101F88002800744BA3FB01639B0803EB4303A1EBFD
:101F98004303DBB2670007EB040C6F4F07EB4C07FA
:101FA800FF5C384110F0010FD2D0C808183001F09A
:101FB800070C012707FA0CFCDFF894E11EF8007003
:101FC80047EA0C070EF80070D1E70132D2B2D0E729
:101FD800002112E0C8081C3001F0070C012707FA9D
:101FE8000CFCDFF86CE11EF8007027EA0C070EF80D
:101FF8000070032B2CD00131C9B209292BD8544BBE
:10200800134493F82870534BA3FB01039B0803EB7D
:102018004303A1EB4303DBB2600000EB040C4E4822
:1020280000EB4C001844007B074117F0010FD1D09A
:10203800C8081C3001F0070C012707FA0CFCDFF870
:1020480010E11EF8007047EA0C070EF80070D0E7A0
:102058000132D2B2CFE7B9F1060F5BD809F101021C
:102068004FF0030303FA02F239494B7F43EA0203B4
:102078004B774AD0012229896868FEF741FB012283
:1020880069896868FEF73CFB002269896868FEF781
:1020980037FB002229896868FEF732FB24222C4985
:1020A8002868FFF72FF90520FFF7D6FD6B68AA8986
:1020B8009A616B68AA899A620420FFF7CDFD6B6864
:1020C800AA899A616B68AA899A620320FFF7C4FDFE
:1020D8006B68AA899A616B68AA899A626B68AA89EF
:1020E8009A616B68AA899A620120FFF7B5FD6B684F
:1020F800AA899A616B68AA899A626B68AA899A61A7
:102108006B68AA899A62BDE8F8838B7F43F0010364
:102118008B77AFE7A9F107063346002E16DBDB10F5
:1021280003F11E00724206F0070602F0070258BFCC
:102138005642032202FA06F1054C225C0A43225455
:10214800072E97D11F330121E15493E7F31DE6E7EA
:1021580090000020ABAAAAAA082A000808B5064BD6
:102168005B6A30B1FF214FF44372184600F0ACFBB4
:1021780008BD0021F7E700BF9000002008B5016006
:1021880042600381BDF8083043814FF48063838146
:1021980040F2EE2000F082FB024B58620020FFF76D
:1021A800DDFF08BD900000202DE9F04781461E465E
:1021B8009DF820A001395FFA81F8013AD7B20025CD
:1021C800554511D27A1902EB8204A400A4B2444402
:1021D800064B586A324606FB059110FA84F000F067
:1021E80065FB0135EDB2EBE7BDE8F0879000002014
:1021F80070B582B0044609E01B4B01221A705A7868
:1022080008325A70013423780A2B08D1237843B353
:10221800154A1278132AEFD80A2BF4D1ECE7203BA1
:10222800DB009EB200250CE07219104B134493F8A2
:102238002400FFF70DFD0E4B2B4483F850000135A9
:10224800EDB2072DF0D9084D0823009301236A78D1
:1022580029780848FFF7A8FF01342B7801332B7041
:10226800D4E702B070BD00BF08000020082A0008AB
:1022780090000020E000002000B583B00E4B5A69A2
:1022880042F001025A615B6903F001030193019B6B
:10229800002211460C20FDF7EDFF0C20FEF71EF87A
:1022A800002211460F20FDF7E5FF0F20FEF716F874
:1022B80003B05DF804FB00BF001002402DE9F041B7
:1022C8008AB0002405940694079408940994424B14
:1022D8005A6942F400225A615A6902F400220092B3
:1022E800009A5A6942F480025A615A6902F48002DB
:1022F8000192019A5A6942F400325A615A6902F409
:1023080000320292029A5A6942F400125A615A69DA
:1023180002F400120392039A5A6942F480225A6125
:102328005B6903F480230493049B2C4F22464FF4EB
:10233800E0613846FEF7E4F901250595069407940F
:1023480005A94FF09040FEF70BF9102305934FF4C1
:1023580004130693079505A94FF09040FEF700F97E
:10236800302305934FF00208CDF818800794032610
:1023780008960723099305A91948FEF7F1F84FF4C1
:102388004073059306950794089405A93846FEF707
:10239800E7F84FF48063059306950794089605A916
:1023A8003846FEF7DDF84FF4C0530593CDF8188092
:1023B800079408960E23099305A94FF09040FEF75D
:1023C800CFF8224621460A20FDF754FF0A20FDF7E0
:1023D80085FF0AB0BDE8F0810010024000100048F7
:1023E8000008004830B591B0002409940B940C946F
:1023F80001940294039404940594012306934FF4E2
:10240800A022079208940A9302250D954FF4803371
:102418000E934FF4E0130F9306A8FEF785F90F23E8
:102428000193029503944FF480630493059429461D
:1024380001A8FEF7CBFC11B030BD000000B583B099
:10244800FDF7E2FEFFF7CEFFFFF738FFFFF714FFB7
:1024580000F06CF800F046F800F09CF91048FFF71F
:102468002DFB4FF4806301934FF4007300934FF4F6
:1024780080730C4A0C490D48FFF780FE0C48FFF7A3
:10248800B7FE01E0012222700A4C21784B1C237010
:102498000648FFF7EBFB2378342BF5D9F2E700BFAA
:1024A8005C020020001000480C010020FC00002005
:1024B800442D00080A000020102800D0704708B5F5
:1024C8004FF4437200210248FFF7CCF808BD00BF63
:1024D80070010020014B01221A7070470A00002089
:1024E8007047000008B50F480F4B03600023436096
:1024F8004FF4806282604FF4E062C260036143611E
:102508004FF4007282610362436283620722C262EF
:1025180003634363FEF782FE00B908BDFFF7E0FFDF
:10252800FBE700BF700100200030014008B51148EA
:10253800114B03604FF482734360002383604FF4B0
:10254800E062C26002220261012242614FF400721D
:102558008261C36180220262436283620722C2628F
:1025680003634363FEF75AFE00B908BDFFF7B8FFDF
:10257800FBE700BF0C0100200038004030B58BB0ED
:102588000446002305930693079308930993036869
:10259800414A934204D0414A934242D00BB030BDE5
:1025A8003F4B9A6942F480529A619A6902F48052C8
:1025B8000192019A5A6942F400325A615B6903F444
:1025C80000330293029BA023059302230693002560
:1025D8000795032308930523099305A94FF0904015
:1025E800FDF7BEFF2F48304B0360456085608023B0
:1025F800C3600561456185614FF48053C361FDF790
:10260800CDFE58B9274BA3655C62002211462320F2
:10261800FDF730FE2320FDF761FEBFE7FFF760FFFF
:10262800F0E71F4BDA6942F48042DA61DA6902F4B2
:1026380080420392039A5A6942F480225A615B6984
:1026480003F480230493049B4FF42043059302234F
:10265800069300250795032308930523099305A9E5
:102668001248FDF77DFF1248124B036010234360A8
:1026780085608023C3600561456185614FF480539F
:10268800C361FDF78BFE18B9094B63655C6285E78A
:10269800FFF726FFF8E700BF003001400038004090
:1026A80000100240D40100201C0002400004004831
:1026B800180200205800024082B00A4B9A6942F082
:1026C80001029A619A6902F001020092009ADA699D
:1026D80042F08052DA61DB6903F080530193019B79
:1026E80002B07047001002407047FEE7FEE7FEE7C1
:1026F800FEE770477047704708B5FDF797FD08BDBE
:1027080008B51020FEF702F808BD000008B5024819
:10271800FDF7CBFE08BD00BFD401002008B5024874
:10272800FDF7C3FE08BD00BF1802002008B5024827
:10273800FFF728F908BD00BF7001002008B503465F
:102748000B4A126842B10A4A106803446A46934227
:1027580006D8074A136008BD054A06491160F2E722
:1027680000F072F80C2303604FF0FF30F3E700BF6E
:10277800E8000020B8020020054BD3F8882042F476
:102788007002C3F888204FF000629A60704700BF5B
:1027980000ED00E008B50A480A4B03604723436090
:1027A800002383604FF6FE72C26003614361836158
:1027B800FFF71EFA00B908BDFFF792FEFBE700BF5E
:1027C8005C020020004801400268094B9A4200D090
:1027D800704782B003F548439A6942F480229A61AF
:1027E8009B6903F480230193019B02B0704700BFEB
:1027F80000480140DFF834D00D480E490E4A002346
:1028080002E0D458C4500433C4188C42F9D30B4A9C
:102818000B4C002301E013600432A242FBD3FFF704
:10282800ABFF00F017F8FFF709FEFEE700A0002055
:102838000000002074000020AC2D00087400002067
:10284800B8020020FEE70000014B1868704700BF7F
:102858001000002070B50D4D0D4C641BA41000260F
:10286800A64209D10B4D0C4C00F0AEF8641BA41025
:102878000026A64205D170BD55F8043B984701369D
:10288800EEE755F8043B98470136F2E7A42D000817
:10289800A42D0008A42D0008A82D0008024B01460D
:1028A800186800F019B800BF100000200A449142CF
:1028B80000F1FF3300D1704710B511F8014B03F850
:1028C800014F9142F9D110BD02440346934200D111
:1028D800704703F8011BF9E7F8B5CD1C25F003058F
:1028E80008350C2D38BF0C25002D064601DBA94202
:1028F80003D90C2333600020F8BD00F057F82149B4
:102908000A6814469CB9204F3B6823B921463046D3
:1029180000F03CF838602946304600F037F8431C90
:1029280023D10C233360304600F046F8E3E72368F0
:102938005B1B17D40B2B03D923601C44256004E0D0
:102948006368A2420CBF0B605360304600F034F855
:1029580004F10B00231D20F00700C21ACCD01B1A6B
:10296800A350C9E722466468CCE7C41C24F00304DA
:10297800A042E3D0211A304600F008F80130DDD13A
:10298800CFE700BFF0000020F400002038B5064D66
:102998000023044608462B60FFF7D0FE431C02D1F3
:1029A8002B6803B1236038BDA8020020014800F05D
:1029B80009B800BFB0020020014800F004B800BF09
:1029C800B002002070477047F8B500BFF8BC08BCDB
:1029D8009E467047F8B500BFF8BC08BC9E467047D5
:1029E80002030405060708090A0B0C0D0E0F101048
:1029F8000102030405060708090A0B0C0D0E0F1047
:102A0800000200030004070006000500000300049C
:102A1800000206000500070000040002000305008C
:102A2800070006000000000000000000183C3C18E9
:102A380018001800363600000000000036367F36D1
:102A48007F3636000C3E031E301F0C00006333181F
:102A58000C6663001C361C6E3B336E0006060300D2
:102A680000000000180C0606060C1800060C1818C2
:102A7800180C060000663CFF3C660000000C0C3F8A
:102A88000C0C000000000000000C0C060000003FC9
:102A98000000000000000000000C0C006030180C62
:102AA800060301003E63737B6F673E000C0E0C0C3F
:102AB8000C0C3F001E33301C06333F001E33301C05
:102AC80030331E00383C36337F3078003F031F30E8
:102AD80030331E001C06031F33331E003F333018EB
:102AE8000C0C0C001E33331E33331E001E33333ED2
:102AF80030180E00000C0C00000C0C00000C0C0030
:102B0800000C0C06180C0603060C180000003F0009
:102B1800003F0000060C1830180C06001E33301851
:102B28000C000C003E637B7B7B031E000C1E3333C2
:102B38003F3333003F66663E66663F003C660303EC
:102B480003663C001F36666666361F007F46161E03
:102B580016467F007F46161E16060F003C660303C6
:102B680073667C003333333F333333001E0C0C0C55
:102B78000C0C1E007830303033331E006766361E6A
:102B8800366667000F06060646667F0063777F7F16
:102B98006B63630063676F7B736363001C366363F7
:102BA80063361C003F66663E06060F001E3333334D
:102BB8003B1E38003F66663E366667001E33070ECA
:102BC80038331E003F2D0C0C0C0C1E0033333333EE
:102BD80033333F0033333333331E0C006363636B8B
:102BE8007F7763006363361C1C3663003333331E00
:102BF8000C0C1E007F6331184C667F001E0606060B
:102C080006061E0003060C18306040001E1818182F
:102C180018181E00081C36630000000000000000A1
:102C2800000000FF0C0C18000000000000001E301F
:102C38003E336E000706063E66663B0000001E3304
:102C480003331E003830303E33336E0000001E332D
:102C58003F031E001C36060F06060F0000006E33E9
:102C6800333E301F0706366E666667000C000E0C92
:102C78000C0C1E00300030303033331E0706663629
:102C88001E3667000E0C0C0C0C0C1E000000337F67
:102C98007F6B630000001F333333330000001E33A3
:102CA80033331E0000003B66663E060F00006E339D
:102CB800333E307800003B6E66060F0000003E038E
:102CC8001E301F00080C7E0C0C2C1800000033333B
:102CD80033336E0000003333331E0C000000636B87
:102CE8007F7F3600000063361C36630000003333F4
:102CF800333E301F00003F190C263F00380C0C07EC
:102D08000C0C38001818180018181800070C0C3884
:102D18000C0C07006E3B00000000000000000000E3
:102D28000000000000000000000000000102030491
:102D380006070809000000000102030420212324DB
:102D480025262728292A2B2C2D2E2F3031323334B3
:102D580035363738393A3B3C3D3E3F4041424344A3
:102D680045464748494A4B4C4D4E4F505152535493
:102D780055565758595A5B5C5D5E5F606162636483
:102D880065666768696A6B6C6D6E6F707172737473
:0C2D980075767778797A7B7C7D7E000070
:042DA400AD01000875
:042DA8008901000895
:102DAC0001000000100000000101010000127A0077
:102DBC0014000020000000000000000000000000D3
:102DCC0000000000000000000000000000000000F7
:102DDC0000000000000000000000000000000000E7
:102DEC0000000000000000000000000000000000D7
:102DFC0000000000000000000000000000000000C7
:102E0C0000000000000000000000000000000000B6
:042E1C0000000000B2
:04000005080027FDCB
:00000001FF
